:020000040800F2
:1000000000000420357B0008DD090008DF09000836
:10001000E1090008E3090008E50900080000000004
:10002000000000000000000000000000E7090008D8
:10003000E909000800000000EB090008ED090008CC
:10004000857B0008857B0008857B0008857B000890
:10005000857B0008857B0008857B0008857B000880
:10006000857B0008857B0008857B0008857B000870
:10007000857B0008857B0008857B0008857B000860
:10008000857B0008857B0008857B0008857B000850
:10009000857B0008857B0008857B0008857B000840
:1000A000857B0008857B0008857B0008857B000830
:1000B000857B0008857B0008857B0008857B000820
:1000C000857B0008857B0008857B0008857B000810
:1000D000857B0008857B0008857B0008857B000800
:1000E000857B0008857B0008857B0008857B0008F0
:1000F000857B0008857B0008857B0008857B0008E0
:10010000857B0008857B0008857B0008857B0008CF
:10011000857B0008857B0008857B0008857B0008BF
:10012000857B0008857B0008857B0008857B0008AF
:10013000857B0008000000000000000000000000B7
:10014000000000000000000000000000F5090008A9
:10015000857B0008857B0008857B0008857B00087F
:10016000857B0008857B0008857B0008857B00086F
:10017000857B0008857B000800000000000000006F
:10018000857B0008857B0008857B0008857B00084F
:10019000857B0008857B000800000000857B000847
:1001A000000000000000000000000000857B000847
:1001B000857B0008857B000800000000000000002F
:1001C000000000000000000000000000000000002F
:1001D000000000000000000000000000857B000817
:1001E00001F0FF01102A2BDB10F0070F08D010F8E8
:1001F000013B013A8B422DD010F0070F42B3F6D1EC
:10020000F0B441EA012141EA014122F007047FF004
:1002100000070023F0E80256083C85EA010586EA5B
:10022000010685FA47F5A3FA87F586FA47F6A5FA97
:1002300087F68EB9EED1F0BC01F0FF0102F00702A3
:1002400032B110F8013B013A83EA010313B1F8D14E
:100250000020704701387047002D06BF354603382F
:10026000073815F0010F07D1013015F4807F02BF68
:10027000013015F4C03F0130F0BC0138704700BFB9
:1002800053B94AB9002908BF00281CBF4FF0FF31FD
:100290004FF0FF3000F00CB8ADF1080C6DE904CE62
:1002A00008F00AFCDDF804E0DDE9022304B0704741
:1002B000704700BF0348044B834202D0034B03B195
:1002C000184770476401002064010020000000000E
:1002D0000548064B1B1AD90F01EBA301491002D0A8
:1002E000034B03B1184770476401002064010020EC
:1002F0000000000010B5064C237843B9FFF7DAFF81
:10030000044B13B10448AFF300800123237010BDE8
:100310006401002000000000B08D000808B5054B06
:100320001BB105490548AFF30080BDE80840FFF761
:10033000CFBF00BF0000000068010020B08D0008A2
:10034000054B064A1A6000225A609A60DA601A6108
:100350005A619A61704700BF30020020002C0140B2
:1003600030B585B00024009401940294039400F009
:10037000F1FC01238DF800308DF8014001941F221B
:100380008DF8082087228DF809208DF80A408DF815
:100390000B408DF80C308DF80D308DF80E408DF837
:1003A0000F40684600F0F4FC042000F0E1FC05B0CA
:1003B00030BD00002DE9F0418AB005AD0024059460
:1003C00006940794089409943C4B1A6B42F004027B
:1003D0001A631A6B02F004020092009A1A6B42F040
:1003E00080021A631A6B02F080020192019A1A6B62
:1003F00042F001021A631A6B02F001020292029AA1
:100400001A6B42F002021A631A6B02F002020392A4
:10041000039A1A6B42F008021A631B6B03F008037D
:100420000493049B264F22461021384602F035F9EA
:1004300001221146384602F030F90A2002F080F914
:10044000204E22464FF48071304602F026F91123E7
:1004500005934FF00108CDF8188007940323089303
:100460002946384602F01EF8102305934FF48817EA
:10047000069707942946144802F014F840F2212305
:100480000593069707942946304602F00BF8082397
:100490000593069407942946304602F003F84FF47A
:1004A00080730593CDF81880079408942946304648
:1004B00001F0F8FF0AB0BDE8F08100BF003802404B
:1004C00000000240000402400008024038B5134812
:1004D00007F044FD012404E0052002F031F9013465
:1004E000E4B27E2C15D821460D4807F0CFFC6423DA
:1004F000032261000B4801F02DF9054601460A4828
:1005000007F0C4FC002DE7D12146084807F0BEFCE7
:10051000E2E7074807F022FD38BD00BFC88D00089C
:10052000E08D0008B4020020F48D0008008E000861
:100530001C8E000810B582B000F07F008DF804001A
:100540008DF80510094C00221021204602F0A5F874
:100550006423022201A9064803F0E0FB01221021D6
:10056000204602F09AF802B010BD00BF0000024021
:10057000CC01002010B582B06B238DF804301348F5
:1005800007F0ECFC002424B1114807F0E7FC02B0AE
:1005900010BD64230522D6210E4801F0DBF8024687
:1005A00050B904F108036B4413F8041C0A4807F01F
:1005B0006DFC0134E4B2E6E704F108036B4413F880
:1005C000041C064807F062FCF3E700BF248E000815
:1005D000808E0008B40200203C8E0008588E00086F
:1005E00000B585B072238DF80F3000238DF80E30E2
:1005F000134807F0B3FC6423009301230DF10F02AD
:10060000D621104800F03EFE88B9642300930123F0
:100610000DF10E02D6210B4800F006FF58B99DF8E7
:100620000E10094807F032FC05B05DF804FB0748DE
:1006300007F094FCF8E7064807F090FCF4E700BFE9
:10064000988E0008B4020020E08E0008B08E0008EA
:10065000D08E000800B587B0642302930123019374
:100660000DF1170200927622D621054800F09AFF7C
:100670009DF81710034807F009FC07B05DF804FB6C
:10068000B4020020F48E000810B584B060F07F0042
:100690008DF80C0000228DF80D200B4C1021204607
:1006A00001F0FBFF64230093022302AA03A9074879
:1006B00003F038FC01221021204601F0EEFF9DF8E6
:1006C000090004B010BD00BF00000240CC010020B2
:1006D00010B5002409E02046FFF7D6FF0246214668
:1006E000034807F0D3FB0134E4B21F2CF3D910BD4B
:1006F000048F000808B50E4807F030FC7220FFF7A1
:10070000C3FF01460B4807F0C1FB01210220FFF7A0
:1007100011FF322002F014F80F211020FFF70AFF1A
:10072000142002F00DF8044807F018FC08BD00BFC3
:100730001C8F0008E08E0008348F000810B50020E0
:10074000FFF7A2FF04460120FFF79EFF40EA0420C6
:1007500000B210BD10B50846144691B205F0A0FED7
:1007600008B1002010BD2046FCE772B6FEE700008D
:1007700008B51148114B0360114B4360002383609F
:100780000122C260036143618361C361036200F0BF
:1007900015FD50B90021084801F090F838B9002142
:1007A000054801F0B8F820B908BDFFF7DEFFFFF7F4
:1007B000DCFFFFF7DAFF00BFB40200200054004066
:1007C0003825200008B51048104B03604FF48273A1
:1007D0004360002383604FF4E062C26003614361C1
:1007E0004FF4007282612022C2610362436283621D
:1007F0000722C26203630823436303F01BFA00B9B4
:1008000008BDFFF7B2FF00BFCC010020003001405F
:1008100000B58FB000230A930B930C930D930793AD
:100820000893099300930193029303930493059310
:1008300006931F484FF080420260436083604FF090
:10084000FF32C2600361836103F08CFE28BB4FF46A
:1008500080530A930AA9164803F0C6FFF8B9144852
:1008600003F0B0FEE8B900230793099307A91048E5
:1008700004F03AF8B8B9602300930023019302937F
:100880000493042269460A4803F004FF68B9084843
:1008900000F0C4F90FB05DF804FBFFF766FFFFF747
:1008A00064FFFFF762FFFFF760FFFFF75EFF00BF27
:1008B0008001002010B594B008AC30220021204601
:1008C00007F02AFC002303930493059306930793F0
:1008D00001F0EAFE214B1A6C42F080521A641B6C44
:1008E00003F080530193019B1D4A136823F4404396
:1008F00043F480431360136803F440430293029B64
:10090000012308934FF48033099302230E934FF48D
:1009100080030F930F2310939023119306231293B8
:1009200005231393204601F021F890B90F23039378
:1009300002230493002305934FF4A05306934FF42E
:1009400080530793012103A801F07EFA18B914B06F
:1009500010BDFFF70AFFFFF708FF00BF0038024095
:100960000070004008B5FFF7FBFC01F0CBFEFFF77D
:10097000A1FFFFF71FFDFFF7FBFEFFF723FFFFF7C8
:10098000DFFCFFF745FF05F099FC07F095F84FF401
:100990007A7001F0D5FE012211460E4801F07DFE6D
:1009A0000A2001F0CDFEFFF791FDFFF7E3FDFFF711
:1009B00017FEFFF74FFEFFF79DFEFFF789FEFFF7DB
:1009C000BDFE0146044807F061FA642001F0B8FE5C
:1009D000F5E700BF00000240488F0008FEE7FEE791
:1009E000FEE7FEE7FEE770477047704708B501F085
:1009F00095FE08BD08B5024805F021F908BD00BF05
:100A0000EC17002082B00A4B1A6C42F080521A6434
:100A10001A6C02F080520092009A5A6C42F48042A2
:100A20005A645B6C03F480430193019B02B07047EE
:100A30000038024010B5A8B004460021239124914B
:100A4000259126912791802203A807F065FB226853
:100A5000184B9A4201D028B010BD4FF48043039345
:100A600003A801F0ADFA08BB134C236B43F002035B
:100A70002363236B03F002030193019BC0232393A1
:100A800012232493002325930323269304232793DF
:100A900023A90A4801F006FD236C43F400132364E4
:100AA000236C03F400130293029BD4E7FFF75DFE6F
:100AB000DAE700BF00540040003802400004024062
:100AC0002DE9F041A8B004460021239124912591FD
:100AD00026912791802203A807F01EFB2268274B4E
:100AE0009A4202D028B0BDE8F0814FF4000303938E
:100AF0004FF08053219303A801F062FA002839D106
:100B00001F4B5A6C42F400625A645A6C02F4006241
:100B10000092009A1A6B42F004021A631A6B02F0F8
:100B200004020192019A1A6B42F008021A631B6BCD
:100B300003F008030293029B4FF4F85323934FF002
:100B40000208CDF8908000272597032626960C25CD
:100B5000279523AC21460B4801F0A4FC04232393E2
:100B6000CDF890802597269627952146064801F0D6
:100B700099FCB7E7FFF7F9FDC2E700BF002C014081
:100B80000038024000080240000C024000B589B065
:100B90000023039304930593069307930268134B72
:100BA0009A4202D009B05DF804FB03F584335A6C15
:100BB00042F480525A645A6C02F480520192019AB3
:100BC0001A6B42F001021A631B6B03F001030293DC
:100BD000029BE0230393022304930323069305233C
:100BE000079303A9024801F05DFCDBE700300140F8
:100BF000000002400368B3F1804F00D0704782B01C
:100C000003F50E331A6C42F001021A641B6C03F0F8
:100C100001030193019B02B07047000000B587B04B
:100C20000023019302930393049305930368B3F1A4
:100C3000804F02D007B05DF804FB03F50E331A6B4A
:100C400042F001021A631B6B03F001030093009B47
:100C50000223019302930123059301A9014801F0A6
:100C600021FCE7E700000240002804DB0901C9B2CB
:100C7000044B1954704700F00F000901C9B2024B30
:100C80001954704700E400E014ED00E000B500F0F6
:100C90000700C0F1070CBCF1040F28BF4FF0040C93
:100CA000031D062B0FD9C31E4FF0FF3E0EFA0CF0AA
:100CB00021EA000199400EFA03FE22EA0E0241EAFF
:100CC00002005DF804FB0023EEE700000649CB6854
:100CD00023F4E0631B041B0C000200F4E0600343F8
:100CE000024A1A43CA60704700ED00E00000FA05AE
:100CF00010B50446054BD868C0F30220FFF7C6FFC5
:100D000001462046FFF7B0FF10BD00BF00ED00E038
:100D1000002807DB00F01F02400901239340024A2C
:100D200042F82030704700BF00E100E00138B0F128
:100D3000807F0BD24FF0E0235861054AF02182F802
:100D400023100020986107221A6170470120704724
:100D500000ED00E0BFF35F8F044B5A6A22F480324B
:100D60005A620022C3F89420704700BF00ED00E0F3
:100D700040F00100054BC3F894005A6A42F48032F7
:100D80005A62BFF34F8FBFF36F8F704700ED00E0E3
:100D90004378144AC2F89830D2F8A03023F0010307
:100DA000C2F8A0304368C2F89C30017BC37A1B06AE
:100DB00043EA0173817A43EAC143417B43EA8143B9
:100DC000817B43EA4143C17B43EA0143417A43EAE1
:100DD0000123017A43EA410301780B43C2F8A030B2
:100DE000704700BF00ED00E003689A6912F0020F3F
:100DF00001D000229A6203689A6912F0010F03D1B0
:100E00009A6942F001029A61704710B4019CC1F3E3
:100E1000090141EA02411943214321F000410268DE
:100E20005368640D04F4806444F07F7444F45834CF
:100E300044F47F7444F0030423EA04030B43536037
:100E40005DF8044B70472DE9F041044603689E6944
:100E500016F010067ED00D4690461022DA6100266C
:100E600037462368986910F0200F32D18FBBB5F157
:100E7000FF3FF6D001F05EFCA0EB0800A84201D8CD
:100E8000002DEED121684A6802F4804294F8423085
:100E9000DBB2886910F4004F04D0203B18BF012357
:100EA00002B973B923689B6913F0200FD9D101F0FF
:100EB00041FCA0EB08001928F4D946F020060127D0
:100EC000CFE74B6843F480434B6001F033FC80462E
:100ED000E8E70FB92022DA6146F00406012522680E
:100EE000936913F4807F05D046F001064FF48071BA
:100EF000D161012513F4806F06D046F00806226800
:100F00004FF48061D161012513F4007F24D046F0B5
:100F1000020623684FF40072DA6101252046FFF7CC
:100F200063FF2268536823F0FF7323F48B3323F4A9
:100F3000FF7323F001035360636C33436364202326
:100F400084F84130002384F8423084F84030284649
:100F5000BDE8F0810025C2E7002DF8D0DEE770B5CE
:100F600004460D46164623689B6913F0020F22D1F2
:100F7000324629462046FFF766FFF0B9B5F1FF3F3C
:100F8000F1D001F0D7FB801BA84201D8002DEAD197
:100F900023689B6913F0020FE5D1636C43F02003D3
:100FA0006364202384F84130002384F8423084F8BD
:100FB0004030012000E0002070BD0120FCE72DE959
:100FC000F8430546884617461E46DDF820902B68F4
:100FD0009C6938EA04040CBF01230023BB4227D1DB
:100FE0004A4631462846FFF72EFF20BBB6F1FF3FA9
:100FF000EDD001F09FFBA0EB0900B04201D8002E1C
:10100000E5D12B689B6938EA03030CBF0123002359
:10101000BB42DCD16B6C43F020036B64202385F86A
:101020004130002385F8423085F84030012000E04F
:101030000020BDE8F8830120FBE700002DE9F04126
:1010400082B0044690461D46089E099F184B0093A7
:101050000023EAB2FFF7D9FE3A4631462046FFF7B1
:101060007EFFF8B9012D0ED123685FFA88F29A62EB
:1010700000973346002240212046FFF7A0FFA8B981
:1010800002B0BDE8F08123684FEA18229A623A461E
:1010900031462046FFF763FF30B923685FFA88F2D4
:1010A0009A62E5E70120EBE70120E9E70120E7E7A5
:1010B0000020008070B504460D46164604E0236803
:1010C0009B6913F0200F12D023689B6913F0200F47
:1010D0001BD1324629462046FFF7B5FEB8B901F0CC
:1010E00029FB801BA842EAD8002DEDD1E7E7636C0D
:1010F00043F020036364202384F84130002384F804
:10110000423084F84030012000E0002070BD012012
:10111000FCE7F8B504460E461746002518E0002304
:10112000636401F007FBC01BB04200D886B97DB9EB
:1011300023689B6913F0040F0AD1636C43F020030A
:101140006364202384F84130002384F84030012573
:1011500023689B6913F0040F2ED16DBB3A463146CC
:101160002046FFF770FE00B1012523689A6912F04E
:10117000200FD6D0002DD4D19A699A6912F0100FA1
:10118000CDD01022DA610423636423682022DA615F
:1011900021684B6823F0FF7323F48B3323F4FF7330
:1011A00023F001034B6084F84120002384F842308F
:1011B00084F840300125B4E72846F8BD00285DD00A
:1011C00010B5044690F84130002B46D0242384F813
:1011D00041302268136823F00103136063682268BA
:1011E00023F0706313612268936823F400439360D3
:1011F000E368012B36D0A368226843F4044393606C
:10120000E368022B34D02268536823F400635360F0
:10121000226851681A4B0B4353602268D36823F449
:101220000043D360236962691343A169226843EADA
:101230000123D360E369216A22680B4313602268AB
:10124000136843F00103136000206064202384F8D6
:101250004130206384F8420010BD80F84030FFF731
:10126000E9FBB3E7A368226843F400439360C7E750
:101270002268536843F400635360C9E70120704754
:10128000008000022DE9F04782B00F460A9E90F8D8
:101290004110202940F0B78004469146984690F8C6
:1012A0004030012B00F0B3804FF0010A80F840A0DD
:1012B00001F040FA05460090192352464FF40041D0
:1012C0002046FFF77CFE002840F0A380212384F80D
:1012D0004130102384F8423000236364C4F8249022
:1012E000A4F82A806363638D9BB2FF2B1ED9FF2372
:1012F00023854FF08073228DEAB1226899F800109F
:101300009162626A01326262628D92B2013A92B275
:101310006285228D013A92B22285013241490091C3
:10132000D2B239462046FFF770FD18E0638D238561
:101330004FF00073DFE73B490091D2B239462046B7
:10134000FFF763FD0BE0628D92B2228500230093CC
:101350004FF00073D2B239462046FFF756FD638D39
:101360009BB2002B33D02A4631462046FFF7F7FDCB
:10137000002850D1626A236812789A62636A013346
:101380006362638D9BB2013B9BB26385238D013BFE
:101390009BB22385628D92B2002AE0D0002BDED171
:1013A00000953346002280212046FFF708FEA0BBAF
:1013B000638D9BB2FF2BC6D9FF22228500230093A9
:1013C0004FF0807339462046FFF71FFDC7E72A46D6
:1013D00031462046FFF76EFE08BB23682022DA6103
:1013E00021684B6823F0FF7323F48B3323F4FF73DE
:1013F00023F001034B6084F84120002384F842303D
:1014000084F8403000E0022002B0BDE8F0870220FE
:10141000FAE70120F8E70120F6E70120F4E70120D0
:10142000F2E700BF002000802DE9F04782B00F46B0
:101430000A9E90F84110202940F0A380044691466E
:10144000984690F84030012B00F09F804FF0010A41
:1014500080F840A001F06EF905460090192352462D
:101460004FF400412046FFF7AAFD002840F08F808E
:10147000222384F84130102384F84230002363642F
:10148000C4F82490A4F82A806363638D9BB2FF2B79
:101490000BD95246A4F828A0414B00934FF080731B
:1014A00039462046FFF7B1FC18E0628D92B22285E2
:1014B0003B4B00934FF00073D2B239462046FFF702
:1014C000A4FC0BE0628D92B22285002300934FF0C2
:1014D0000073D2B239462046FFF797FC638D9BB26A
:1014E000002B32D02A4631462046FFF712FE002854
:1014F0004FD123685A6A636A1A70636A0133636260
:10150000228D013A92B22285638D9BB2013B9BB240
:101510006385638D9BB2002BE0D0002ADED100955D
:10152000334680212046FFF74AFDA0BB638D9BB266
:10153000FF2BC7D9FF222285002300934FF0807331
:1015400039462046FFF761FCC8E72A463146204667
:10155000FFF7B0FD08BB23682022DA6121684B68E1
:1015600023F0FF7323F48B3323F4FF7323F0010381
:101570004B6084F84120002384F8423084F84030E6
:1015800000E0022002B0BDE8F0870220FAE7012067
:10159000F8E70120F6E70120F4E70120F2E700BFB9
:1015A000002400802DE9F04F83B00D46BDF834A033
:1015B0000E9F90F84110202940F0BD8004469146CE
:1015C00098460C9BBAF1000F18BF002B16D090F86C
:1015D0004030012B00F0B3804FF0010B80F840B099
:1015E00001F0A8F80646009019235A464FF400412E
:1015F0002046FFF7E4FC30B101209DE04FF400737A
:101600004364012098E0222384F84130402384F889
:101610004230002363640C9A6262A4F82AA06363D8
:101620000196009743464A4629462046FFF706FDA5
:1016300070B9638D9BB2FF2B0FD901222285444BD9
:1016400000934FF0807329462046FFF7DEFB21E030
:10165000002384F8403058466EE0628D92B22285B5
:101660003B4B00934FF00073D2B229462046FFF760
:10167000CCFB0FE0628D92B22285002300934FF0E5
:101680000073D2B229462046FFF7BFFB638D9BB2A1
:10169000002B34D000963B46002204212046FFF761
:1016A0008EFC00284DD123685A6A636A1A70636AF7
:1016B00001336362228D013A92B22285638D9BB21F
:1016C000013B9BB26385638D9BB2002BDED0002A69
:1016D000DCD100963B4680212046FFF770FC90BB92
:1016E000638D9BB2FF2BC5D9012222850023009375
:1016F0004FF0807329462046FFF787FBC6E7324646
:1017000039462046FFF7D6FCF8B923682022DA6173
:1017100021684B6823F0FF7323F48B3323F4FF73AA
:1017200023F001034B6084F84120002384F8423009
:1017300084F8403000E0022003B0BDE8F08F0220C2
:10174000FAE70120F8E70120F6E70120F4E700BFFF
:10175000002400802DE9F04784B01D460023039348
:1017600090F84130202B40F09F80064689469046F5
:1017700003689B6913F4004F40F0988090F8403064
:10178000012B00F09580012380F84030242380F85D
:101790004130002343649A46F368012B10D0C9F30B
:1017A0000902444B13433268536000F0C3FF0746FD
:1017B00032689369C3F3401C9369C3F300130BE0D1
:1017C000C9F309023C4B1343EDE733689C69C4F34A
:1017D000401C9B69C3F300135CEA030C17D1B5F1FD
:1017E000FF3FF2D000F0A6FFC01BA84201D8002D99
:1017F000EBD1202386F84130736C43F020037364EF
:10180000002386F84030012004B0BDE8F08733683B
:101810009A6912F0100F33D100972B460022202135
:101820003046FFF7CCFB10B3736C042B19D04FF08C
:10183000010A039B01330393039B434502D2BAF190
:10184000000F2ED1039B4345A6D3202386F84130B9
:10185000736C43F020037364002386F8403001204A
:10186000D2E733682022DA6100237364E1E732684B
:101870002023D36186F84130002386F84030C3E747
:101880001022DA6100972B46002220213046FFF714
:1018900096FB18B933682022DA61CAE74FF0010AD3
:1018A000C7E74FF0000ACDE70220ADE70220ABE723
:1018B0000220A9E70028000200200002034690F859
:1018C0004120202A23D190F84020012A21D0012252
:1018D00080F84020242280F841200068026822F02D
:1018E000010202601868026822F4805202601868DF
:1018F00002680A43026019680A6842F001020A603D
:10190000202283F84120002083F840007047022005
:10191000704702207047034690F84120202A21D1C9
:1019200090F84020012A1FD0012280F84020242274
:1019300080F841200068026822F001020260186805
:10194000026822F4706242EA0122026019680A68A1
:1019500042F001020A60202283F84120002083F82F
:10196000400070470220704702207047002800F0B6
:10197000FF8170B582B00446036813F0010F29D0CF
:10198000954B9B6803F00C03042B1AD0924B9B6879
:1019900003F00C03082B0FD06368B3F5803F40D0F1
:1019A000002B54D18C4B1A6822F480321A601A68CA
:1019B00022F480221A6039E0874B5B6813F4800FB1
:1019C000EAD0854B1B6813F4003F03D06368002BFB
:1019D00000F0D081236813F0020F74D07E4B9B6817
:1019E00013F00C0F5ED07C4B9B6803F00C03082BAC
:1019F00053D0E368002B00F08980774A136843F0E6
:101A00000103136000F096FE0546734B1B6813F04C
:101A1000020F72D100F08EFE401B0228F5D9032080
:101A2000ADE16D4A136843F48033136063682BB3F0
:101A300000F080FE0546684B1B6813F4003FC9D1D7
:101A400000F078FE401B6428F5D9032097E1B3F538
:101A5000A02F09D0604B1A6822F480321A601A68ED
:101A600022F480221A60E1E75B4B1A6842F480227C
:101A70001A601A6842F480321A60D7E700F05AFE02
:101A80000546554B1B6813F4003FA3D000F052FEEF
:101A9000401B6428F5D9032071E14F4B5B6813F4B8
:101AA000800FA6D14C4B1B6813F0020F03D0E368E4
:101AB000012B40F06181484A136823F0F803216943
:101AC00043EAC1031360236813F0080F46D063692B
:101AD00083B3414A536F43F00103536700F02AFE7A
:101AE00005463D4B5B6F13F0020F37D100F022FE2D
:101AF000401B0228F5D9032041E1374A136823F03F
:101B0000F803216943EAC1031360DCE7324A136832
:101B100023F00103136000F00DFE05462E4B1B68F9
:101B200013F0020FCFD000F005FE401B0228F5D9BC
:101B3000032024E1284A536F23F00103536700F088
:101B4000F9FD0546244B5B6F13F0020F06D000F041
:101B5000F1FD401B0228F5D9032010E1236813F0A2
:101B6000040F7DD01C4B1B6C13F0805F1ED11A4BF1
:101B70001A6C42F080521A641B6C03F0805301937C
:101B8000019B0125154B1B6813F4807F10D0A368BF
:101B9000012B25D0002B3BD10F4B1A6F22F00102F5
:101BA0001A671A6F22F004021A671EE00025E9E79F
:101BB0000A4A136843F48073136000F0BBFD0646C5
:101BC000064B1B6813F4807FE1D100F0B3FD801B4E
:101BD0006428F5D90320D2E00038024000700040AC
:101BE0006E4A136F43F001031367A36833B300F029
:101BF000A1FD0646694B1B6F13F0020F2FD100F0B9
:101C000099FD801B41F288339842F3D90320B6E056
:101C1000052B09D0614B1A6F22F001021A671A6F67
:101C200022F004021A67E0E75C4B1A6F42F00402EC
:101C30001A671A6F42F001021A67D6E700F07AFDC0
:101C40000646564B1B6F13F0020F08D000F072FDD2
:101C5000801B41F288339842F3D903208FE0FDB90D
:101C6000A369002B00F08A804C4A926802F00C02B3
:101C7000082A58D0022B19D0484A136823F08073E1
:101C8000136000F057FD0446444B1B6813F0007FBF
:101C900047D000F04FFD001B0228F5D903206EE06D
:101CA0003E4A136C23F080531364D9E73B4A136810
:101CB00023F08073136000F03DFD0546374B1B6831
:101CC00013F0007F06D000F035FD401B0228F5D947
:101CD000032054E0E369226A1343626A43EA8213F1
:101CE000A26A5208013A43EA0243E26A43EA026303
:101CF00043F00053294A5360136843F08073136024
:101D000000F018FD0446254B1B6813F0007F06D138
:101D100000F010FD001B0228F5D903202FE0002061
:101D20002DE000202BE01D4A5268012B29D002F43F
:101D30008003E1698B4226D102F03F03216A8B4286
:101D400023D1616A47F6C0731340B3EB811F1ED1E4
:101D500002F44031A36A5B08013BB1EB034F18D199
:101D600002F07062E36AB2EB036F14D1002006E068
:101D700001207047012002E0012000E0002002B0B5
:101D800070BD0120FBE70120F9E70120F7E7012002
:101D9000F5E70120F3E70120F1E700BF003802403A
:101DA00008B5264B9B6803F00C03042B41D0082B8D
:101DB00041D1224B5A6802F03F025B6813F4800F56
:101DC00012D01E4B5968C1F388111D480023A1FB96
:101DD0000001FEF755FA194B5B68C3F30143013369
:101DE0005B00B0FBF3F008BD144B5868C0F38810DB
:101DF0004FEA401CBCEB000C6EEB0E0E4FEA8E134C
:101E000043EA9C634FEA8C11B1EB0C0163EB0E03C8
:101E1000DB0043EA5173C90011EB000C43F10003EE
:101E2000990200234FEA8C2041EA9C51FEF728FAE0
:101E3000D1E70348D7E70348D5E700BF00380240A1
:101E400040787D010024F400002800F0A08070B5E7
:101E50000D460446524B1B6803F00F038B420BD216
:101E60004F4A136823F00F030B431360136803F00A
:101E70000F038B4240F08D80236813F0020F17D0C0
:101E800013F0040F04D0474A936843F4E05393607F
:101E9000236813F0080F04D0424A936843F4604368
:101EA0009360404A936823F0F003A1680B4393606A
:101EB000236813F0010F31D06368012B20D0022B6F
:101EC00025D0384A126812F0020F64D035498A686A
:101ED00022F0030213438B6000F02CFC0646314BCA
:101EE0009B6803F00C036268B3EB820F16D000F01E
:101EF00021FC801B41F288339842F0D9032045E051
:101F0000284A126812F4003FE0D101203EE0254A41
:101F1000126812F0007FD9D1012037E0204B1B68F6
:101F200003F00F03AB420AD91D4A136823F00F03D5
:101F30002B431360136803F00F03AB422DD12368CA
:101F400013F0040F06D0174A936823F4E053E168B6
:101F50000B439360236813F0080F07D0114A93686E
:101F600023F46043216943EAC1039360FFF718FF3C
:101F70000C4B9B68C3F303130B4AD35CD8400B4B49
:101F800018600B4B186800F097FB002070BD012013
:101F900070470120FAE70120F8E70120F6E700BFCB
:101FA000003C024000380240A08F000808000020DA
:101FB00004000020014B1868704700BF0800002093
:101FC000F0B583B00446066816F001060DD0AB4BA1
:101FD0009A6822F400029A609A68C16A0A439A6079
:101FE000C36A002B00F023810026256815F4002524
:101FF00011D0A24AD2F88C3023F44013616B0B430A
:10200000C2F88C30636BB3F5801F00F01281002B97
:1020100000F011810025236813F4801F0FD0974A28
:10202000D2F88C3023F44003A16B0B43C2F88C3000
:10203000A36BB3F5800F00F0008103B9012523687D
:1020400013F0200F40F0FB80236813F0100F0CD02A
:102050008A4BD3F88C2022F08072C3F88C20D3F8FE
:102060008C20216B0A43C3F88C20236813F4804F23
:1020700008D0824AD2F8903023F44033E16D0B430C
:10208000C2F89030236813F4004F08D07B4AD2F88E
:10209000903023F44023216E0B43C2F89030236824
:1020A00013F4803F08D0754AD2F8903023F44013DF
:1020B000616E0B43C2F89030236813F0400F08D0D4
:1020C0006E4AD2F8903023F00303E16B0B43C2F861
:1020D0009030236813F0800F08D0684AD2F890300F
:1020E00023F00C03216C0B43C2F89030236813F4E7
:1020F000807F08D0614AD2F8903023F03003616CC1
:102100000B43C2F89030236813F4007F08D05B4A79
:10211000D2F8903023F0C003A16C0B43C2F890308A
:10212000236813F4806F08D0544AD2F8903023F417
:102130004073E16C0B43C2F89030236813F4006FD6
:1021400008D04E4AD2F8903023F44063216D0B43FF
:10215000C2F89030236813F4805F08D0474AD2F861
:10216000903023F44053616D0B43C2F890302368E4
:1021700013F4005F08D0414AD2F8903023F4404372
:10218000A16D0B43C2F89030236813F4001F0DD0EB
:102190003A4AD2F8903023F00063616F0B43C2F8E3
:1021A0009030636FB3F1006F00F0B480236813F4D4
:1021B000802F08D0314AD2F8903023F04073E16E7E
:1021C0000B43C2F89030236813F4000F08D02B4A59
:1021D000D2F8903023F08053A16F0B43C2F89030B7
:1021E000236813F0806F08D0244AD2F8903023F08F
:1021F0000053E16F0B43C2F8903026B9236813F007
:10220000007F00F0E4801D4A136823F080631360B0
:1022100000F090FA0646194B1B6813F0006F7BD054
:1022200000F088FA801B6428F5D90320D2E001264B
:10223000DBE60126EBE60125EDE60126FDE60F4B88
:102240001A6C42F080521A641B6C03F080530193A5
:10225000019B0B4A136843F48073136000F06AFA21
:102260000746074B1B6813F4807F0BD100F062FA1E
:10227000C01B6428F5D90320ACE000BF0038024041
:1022800000700040854B1B6F13F4407315D0A26A99
:1022900002F440729A4210D0804B1A6F22F44072BE
:1022A000196F41F480311967196F21F48031196772
:1022B0001A671B6F13F0010F12D1A36A03F4407267
:1022C000B2F5407F1DD0754A936823F4F8139360EC
:1022D00072490B6FA26AC2F30B0213430B67B3E69A
:1022E00000F028FA07466D4B1B6F13F0020FE4D184
:1022F00000F020FAC01B41F288339842F3D9032042
:1023000068E06648826822F4F812654919400A4379
:102310008260DDE7012549E7236813F0010F0ED045
:10232000E36A63B95D4AD2F88430616803F0706390
:1023300043EA8113A16843EA0173C2F88430236839
:1023400013F4002F03D0626BB2F5801F06D013F494
:10235000801F19D0A36BB3F5800F15D14F4AD2F867
:1023600084106068E3681B0643EA801301F0E041D3
:102370000B43C2F88430D2F88C3023F01F03E1699C
:1023800001390B43C2F88C30236813F0007F0AD068
:102390006268E3681B0643EA8213A26843EA027399
:1023A0003E4AC2F884303D4A136843F080631360AC
:1023B00000F0C0F90646394B1B6813F0006F06D1D8
:1023C00000F0B8F9801B6428F5D9032002E0012D44
:1023D00002D0002003B0F0BD304A136823F08053D0
:1023E000136000F0A7F905462C4B1B6813F0005F43
:1023F00006D000F09FF9401B6428F5D90320E9E7D7
:10240000236813F4002F01D0626B22B113F4801FF4
:1024100018D0A36BB3B9214AD2F88830216903F4EC
:10242000403343EA8113616943EA0163C2F88830AB
:10243000D2F88C3023F4F853216A013943EA01239E
:10244000C2F88C30236813F4001F03D0636FB3F11C
:10245000006F13D0114A136843F08053136000F0EB
:1024600069F904460D4B1B6813F0005F14D100F0AE
:1024700061F9001B6428F5D90320ABE70749D1F8BF
:1024800088202069A3691B0443EA801302F070626C
:102490001343C1F88830DDE700209BE70038024095
:1024A000FFFCFF0F00230F2B00F2E78070B582B016
:1024B00065E085684FEA430E032404FA0EF425EA2A
:1024C0000405CC6804FA0EF42C438460446824EAC2
:1024D00002044A68C2F300129A40224342605CE060
:1024E000DC08083450F8242003F00705AD004FF055
:1024F0000F0E0EFA05FE22EA0E0E0A69AA4042EA03
:102500000E0240F824205CE0072200E0002202FADC
:102510000EF22A430234594D45F82420584A946853
:102520006FEA0C0224EA0C054E6816F4801F01D0F5
:102530004CEA0405524CA560E46802EA04054E68C2
:1025400016F4001F01D04CEA04054D4CE5606468A8
:1025500002EA04054E6816F4003F01D04CEA040577
:10256000474C6560246822404D6815F4803F01D0D7
:102570004CEA0402424C226001330F2B7BD801222B
:102580009A400C6804EA020C32EA0404F4D14C6864
:1025900004F00304013C012C8BD94A6802F00302C9
:1025A000032A09D0C4685D000322AA4024EA020479
:1025B0008A68AA402243C2604A6802F00302022AE3
:1025C0008ED004684FEA430E032202FA0EF224EA88
:1025D00002044A6802F0030202FA0EF22243026089
:1025E0004A6812F4403FC7D0264A546C44F48044F1
:1025F0005464526C02F480420192019A9C08A51C1A
:102600001E4A52F8255003F0030E4FEA8E0E0F2299
:1026100002FA0EF225EA02051B4A90423FF476AF19
:1026200002F5806290421AD002F58062904218D082
:1026300002F58062904216D002F58062904214D07A
:1026400002F58062904212D002F58062904210D072
:1026500002F5806290423FF457AF082257E701220B
:1026600055E7022253E7032251E704224FE70522F0
:102670004DE706224BE702B070BD704700380140BD
:10268000003C01400038024000000240036919424A
:1026900001D001207047002070470AB18161704766
:1026A0000904816170470000024A136843F4807393
:1026B000136070470070004010B504460E4B1A7846
:1026C0004FF47A73B3FBF2F30C4A1068B0FBF3F0EB
:1026D000FEF72CFB68B90F2C01D901200AE000227B
:1026E00021464FF0FF30FEF703FB054B1C60002036
:1026F00000E0012010BD00BF000000200800002005
:102700000400002008B50320FEF7E0FA0F20FFF7D1
:10271000D3FFFEF777F9002008BD0000034A1168D7
:10272000034B1B780B441360704700BF0803002065
:1027300000000020014B1868704700BF080300200C
:1027400038B50446FFF7F6FF0546B4F1FF3F02D067
:10275000044B1B781C44FFF7EDFF401BA042FAD34B
:1027600038BD00BF000000200B4B1B680B4AA2FBCA
:1027700003235B0A41F2883202FB03F31A46013B52
:102780003AB1426B12F0800FF8D0C523836300206A
:1027900070474FF00040704708000020D34D621092
:1027A00084B00DF1040C8CE80E000B461343039A21
:1027B0001343049A1343059A1343069A134341683B
:1027C000034A0A4013434360002004B0704700BF2F
:1027D0000081FFFFD0F8800070470B68C0F88030A0
:1027E000002070470323036000207047006800F05A
:1027F000030070470B6883604B688A681343CA689C
:1028000013430A691343C2686FF30B021343C36097
:10281000002070470069C0B27047143040587047BC
:102820000B6843624B6883628B68CA6813430A690A
:1028300013434A691343C26A22F0F7021343C36287
:102840000020704710B586B0044600230193029320
:10285000039304934FF48063059301A9FFF7CAFF24
:102860002046FFF781FF06B010BD000038B50446D2
:102870000D46504B1B685049A1FB03135B0A03FB39
:1028800002F21346013A002B5DD0636B13F0450F43
:10289000F7D013F4006FF4D1636B13F0040F06D17B
:1028A000636B13F0010F05D00120A0634DE00420FD
:1028B000A0634AE0C523A3632046FFF7ABFFA8420D
:1028C00001D0012041E000212046FFF7A6FF03468A
:1028D0003A481840C8B3002B38DB13F0804F38D18A
:1028E00013F0005F37D113F0805F36D113F0006F23
:1028F00036D113F0806F36D113F0807F36D113F4C8
:10290000000F36D113F4800F36D113F4001F36D1E7
:1029100013F4801F36D113F4802F36D113F4003F07
:1029200036D113F4803F36D113F4004F36D113F46F
:10293000804F36D113F4005F36D113F0080F36D034
:102940004FF4000001E04FF0004038BD4FF0007040
:10295000FBE74020F9E78020F7E74FF48070F4E7C9
:102960004FF40070F1E74FF48060EEE74FF4006041
:10297000EBE74FF48050E8E74FF40050E5E74FF401
:102980008040E2E74FF40040DFE74FF40030DCE73F
:102990004FF48020D9E74FF40020D6E74FF48010A1
:1029A000D3E74FF40010D0E74FF48000CDE74FF4A9
:1029B0008030CAE708000020D34D621008E0FFFD18
:1029C00030B587B00446019110250295402303934A
:1029D000002304934FF48063059301A9FFF70AFFD6
:1029E00041F2883229462046FFF740FF07B030BD4C
:1029F00030B587B004460191112502954023039319
:102A0000002304934FF48063059301A9FFF7F2FEBE
:102A100041F2883229462046FFF728FF07B030BD33
:102A200030B587B0044601911225029540230393E7
:102A3000002304934FF48063059301A9FFF7DAFEA6
:102A400041F2883229462046FFF710FF07B030BD1B
:102A500030B587B0044601911825029540230393B1
:102A6000002304934FF48063059301A9FFF7C2FE8E
:102A700041F2883229462046FFF7F8FE07B030BD04
:102A800030B587B004460191192502954023039380
:102A9000002304934FF48063059301A9FFF7AAFE76
:102AA00041F2883229462046FFF7E0FE07B030BDEC
:102AB00030B587B00446002301930C2502954022CF
:102AC000039204934FF48063059301A9FFF792FEEC
:102AD000034A29462046FFF7C9FE07B030BD00BFB4
:102AE00000E1F50530B587B004460192072502954F
:102AF00040230393002304934FF48063059301A9BB
:102B0000FFF778FE41F2883229462046FFF7AEFEF5
:102B100007B030BD30B587B0044601913725029526
:102B200040230393002304934FF48063059301A98A
:102B3000FFF760FE41F2883229462046FFF796FEF5
:102B400007B030BD30B587B0044601910625029527
:102B500040230393002304934FF48063059301A95A
:102B6000FFF748FE41F2883229462046FFF77EFEF5
:102B700007B030BD30B587B004460023019333253C
:102B800002954022039204934FF48063059301A9B8
:102B9000FFF730FE41F2883229462046FFF766FEF5
:102BA00007B030BD30B587B0044601910D250295C0
:102BB00040230393002304934FF48063059301A9FA
:102BC000FFF718FE41F2883229462046FFF74EFEF5
:102BD00007B030BD0146144B1B68144AA2FB032307
:102BE0005B0A41F2883202FB03F31A46013BBAB199
:102BF0004A6B12F0450FF8D012F4006FF5D14B6B11
:102C000013F0040F06D1486B10F0010005D1C52365
:102C10008B63704704208863704701208863704786
:102C20004FF00040704700BF08000020D34D6210F5
:102C300010B586B004460023019302220292C022FE
:102C4000039204934FF48063059301A9FFF7D2FD2B
:102C50002046FFF7BFFF06B010BD10B586B0044692
:102C6000019109230293C0230393002304934FF49B
:102C70008063059301A9FFF7BDFD2046FFF7AAFF7A
:102C800006B010BD0146104B1B68104AA2FB03237F
:102C90005B0A41F2883202FB03F31A46013B82B120
:102CA0004A6B12F0450FF8D012F4006FF5D1486B63
:102CB00010F0040002D1C5238B63704704208863A1
:102CC00070474FF00040704708000020D34D62105D
:102CD00010B586B004460A4B0B4301932923029397
:102CE00040230393002304934FF48063059301A9C9
:102CF000FFF780FD2046FFF7C5FF06B010BD00BFFF
:102D000000001080F8B505460E461746234B1B6899
:102D1000234AA2FB03235B0A41F2883202FB03F33E
:102D20001A46013B8AB36C6B14F0450FF8D014F4CB
:102D3000006FF5D16B6B13F0040F06D16B6B13F0C2
:102D4000010F05D00120A86321E00420A8631EE044
:102D50002846FFF75FFDB04201D0012017E0C523F0
:102D6000AB6300212846FFF758FD034610F460408E
:102D700008D013F4804F0BD113F4004F0BD04FF455
:102D8000805004E01B0C3B8001E04FF00040F8BD98
:102D90004FF40050FBE74FF48030F8E708000020C4
:102DA000D34D621070B586B004460D4600230193E2
:102DB000032602964022039204934FF48063059306
:102DC00001A9FFF717FD2A4631462046FFF79AFF73
:102DD00006B070BD0146164B1B68164AA2FB0323C2
:102DE0005B0A41F2883202FB03F31A46013BE2B16F
:102DF0004A6B12F0450FF8D012F4006FF5D14B6B0F
:102E000013F0040F0BD14B6B13F001030AD1486B85
:102E100010F040000BD040228A631846704704200F
:102E2000886370470120886370474FF00040704707
:102E300008000020D34D621010B586B004464FF450
:102E4000D573019308230293402303930023049333
:102E50004FF48063059301A9FFF7CCFC2046FFF7F0
:102E6000B9FF06B010BD000070B582B00446002363
:102E700001930068FFF7E6FC054610B1284602B052
:102E800070BD2068FFF7D8FF38B90123A364A36C95
:102E9000012B0BD02E46284614E00023A3642068A3
:102EA000FFF7D0FC0028F2D00546E7E700212068B4
:102EB000FFF730FE0028EDD04FF08055DEE7019B94
:102EC00001330193019A4FF6FE739A4213D896B9D3
:102ED00000212068FFF71EFEE0B912492068FFF7C5
:102EE000F7FE0646C0B900212068FFF796FCC30F25
:102EF000E5D01E46E3E7019A4FF6FE739A420ED8DC
:102F000010F0804302D001236364B7E700226264BB
:102F10001D46B3E70546B1E74FF08055AEE74FF0E9
:102F20008075ABE7000010C1F0B589B004460F46CC
:102F3000FFF700FC06460023009301930821206858
:102F4000FFF73EFD054610B1284609B0F0BD216DE2
:102F500009042068FFF7DEFD05460028F4D14FF094
:102F6000FF33029308230393302304930223059332
:102F7000002306930123079302A92068FFF750FC62
:102F80002068FFF7F7FD054658B1DDE7FFF722FCA3
:102F90004DF825000135FFF7CDFB831BB3F1FF3F53
:102FA0003FD02068436B13F02A0F07D1436B13F413
:102FB000001FEBD1436B13F4005FECD1436B13F0B4
:102FC000080F25D1436B13F0020F24D1456B15F088
:102FD000200523D140F23A538363019A130203F48C
:102FE0007F0343EA0263110A01F47F410B4343EA82
:102FF00012633B60009A130203F47F0343EA026307
:10300000110A01F47F410B4343EA12637B609BE7A3
:103010000825856398E70225856395E72025856364
:1030200092E74FF000458FE710B582B004460021CB
:10303000009101910068FFF7F0FB10F0007F13D1C1
:1030400069462046FFF770FF80B9019B13F4802F7B
:103050000ED0216D09042068FFF75CFD30B9022114
:103060002068FFF76FFD01E04FF4006002B010BD73
:103070004FF08060FAE710B582B00446002100915D
:1030800001910068FFF7C9FB10F0007F13D169467A
:103090002046FFF749FF80B9019B13F4803F0ED013
:1030A000216D09042068FFF735FD30B90021206843
:1030B000FFF748FD01E04FF4006002B010BD4FF093
:1030C0008060FAE770B581B104460E46016D0904CF
:1030D0000068FFF767FD054608B1284670BD00216E
:1030E0002068FFF79AFB3060F7E74FF00065F4E7E0
:1030F0002DE9F04F87B005460C4616469A46DDF896
:103100004090FFF717FB002C36D0804695F83430FE
:103110005FFA83FB012B40F002810023AB6306EBD7
:103120000A03EA6D93422ED8032385F834302B68C6
:103130000022DA626B6C012B00D076024FF0FF3375
:1031400000934FEA4A2301939023029302230393AF
:10315000002304930123059369462868FFF760FB69
:10316000BAF1010F14D902232B6331462868FFF707
:1031700057FCA0B9019F27E0AB6B43F00063AB6342
:103180004FF0010BD1E0AB6B43F00073AB63CCE0CD
:1031900001232B6331462868FFF72AFCE9E72B68F7
:1031A000644A9A63AB6B0343AB63012385F8343005
:1031B00000232B63B9E0FFF7BDFAA0EB08004845F8
:1031C0001FD2B9F1000F1CD02868466B16F4957613
:1031D00026D1436B13F4004FEDD0002FEBD0072E18
:1031E000E9D82868FFF7F6FA2070C0F30723637068
:1031F000C0F30743A370000EE0700434043F0136AF
:10320000EDE72B684B4A9A63AB6B43F00043AB632B
:10321000012385F8343000232B634FF0030B84E047
:10322000436B13F4807F05D0BAF1010F02D96B6CA8
:10323000032B36D12B685A6B12F0080F42D15A6B10
:1032400012F0020F4AD15A6B12F0200F52D12868A7
:10325000436B13F4001F59D0002F57D0FFF7BAFA71
:103260002070C0F307236370C0F30743A370000E00
:10327000E0700434043FFFF75DFAA0EB0800484516
:1032800002D2B9F1000FE2D12B682A4A9A63AB6BE4
:1032900043F00043AB63012385F8343000232B63F4
:1032A00043E0FFF705FC03460028C3D02A68214904
:1032B0009163AA6B1343AB63012385F83430002379
:1032C0002B6332E01B4A9A63AB6B43F00803AB639A
:1032D000012385F8343000232B6326E0154A9A63D6
:1032E000AB6B43F00203AB63012385F8343000235A
:1032F0002B631AE00F4A9A63AB6B43F02003AB6376
:10330000012385F8343000232B630EE040F23A535A
:103310008363012385F834304FF0000B05E0AB6B7D
:1033200043F00053AB634FF0010B584607B0BDE8C4
:10333000F08F00BFFF0540002DE9F04F8BB0054630
:103340000C4616469A46DDF85090FFF7F3F9002C2C
:1033500038D0074695F834305FFA83FB012B40F0F4
:10336000E3800023AB6306EB0A03EA6D934230D897
:10337000032385F834302B680022DA626B6C012B52
:1033800000D076024FF0FF3304934FEA4A230593AF
:10339000902306930023079308930123099304A91C
:1033A0002868FFF73DFABAF1010F17D920232B63E4
:1033B00031462868FFF764FB0190019BB3B9DDF843
:1033C000148028E0AB6B43F00063AB634FF0010B5C
:1033D000B0E0AB6B43F00073AB63ABE010232B6347
:1033E00031462868FFF734FB0190E6E72B68534A23
:1033F0009A63AB6B019A1343AB63012385F83430B6
:1034000000232B6396E0FFF795F9C01B484527D2B0
:10341000B9F1000F24D02868466B16F48D762ED1B2
:10342000436B13F4804FEED0B8F1000FEBD0072EB2
:10343000E9D823780393627843EA02230393A278BE
:1034400043EA02430393E27843EA026303930434BA
:10345000A8F1040803A92868FFF7BFF90136E6E7D9
:103460002B68364A9A63AB6B019A1343AB63012313
:1034700085F8343000232B634FF0030B5AE0436B85
:1034800013F4807F05D0BAF1010F02D96B6C032BC6
:1034900018D12B685A6B12F0080F24D15A6B12F016
:1034A000020F2CD15A6B12F0100F34D0234A9A63BA
:1034B000AB6B43F01003AB63012385F8343000237A
:1034C0002B6337E0FFF7F4FA03460028E1D02A68BF
:1034D0001A499163AA6B1343AB63012385F8343017
:1034E00000232B6326E0154A9A63AB6B43F0080375
:1034F000AB63012385F8343000232B631AE00F4AB5
:103500009A63AB6B43F00203AB63012385F834305D
:1035100000232B630EE040F23A529A63012385F8B0
:1035200034304FF0000B05E0AB6B43F00053AB635E
:103530004FF0010B58460BB0BDE8F08FFF0540007F
:103540000346426E920F0A70426EC2F383624A7063
:1035500090F8672002F003028A7090F86620CA7023
:1035600090F865200A7190F864204A71826E120DFD
:10357000CA80B0F86A2002F00F020A72826EC2F3AB
:10358000C0324A72826EC2F380328A72826EC2F395
:103590004032CA72826EC2F300320A7300224A734A
:1035A000426C002A40F08680806E40F6FC7202EA8F
:1035B0008002D86E42EA90720A61DA6EC2F3C26289
:1035C0000A7593F86F2002F007024A75DA6EC2F3AB
:1035D00042528A75DA6EC2F38242CA75DA6EC2F35B
:1035E000C2320A760A6901325A65087E00F0070085
:1035F000023082405A6591F808C00CF00F0C01208F
:1036000000FA0CF09865400A00FB02F2DA654FF40C
:1036100000721A66DA6EC2F380324A76DA6EC2F34C
:10362000C6128A76DA6E02F07F02CA761A6FD20F5D
:103630000A771A6FC2F341724A771A6FC2F3826235
:103640008A771A6FC2F38352CA771A6FC2F3405255
:1036500081F82020002081F82100B3F8722002F0C8
:10366000010281F822201A6FC2F3C03281F82320B0
:103670001A6FC2F3803281F824201A6FC2F34032ED
:1036800081F825201A6FC2F3003281F826201A6FC4
:10369000C2F3812281F827201A6FC2F3012281F838
:1036A00028201B6FC3F3460381F82930012381F8DA
:1036B0002A307047012A11D1826E120402F47C1262
:1036C000B0F86E0002430A610A69013292025A653B
:1036D000DA654FF400729A651A669BE7026805493D
:1036E0009163826B42F080528263012083F8340040
:1036F000704700BFFF05400070B590B0044601233D
:10370000ADF812300068FFF771F800286CD0636CD8
:10371000032B45D1636C032B5DD1636C032B1DD050
:10372000BDF81210216509042068FFF796FA0546D6
:1037300000285BD100212068FFF76FF86066042144
:103740002068FFF76AF8A06608212068FFF765F88F
:10375000E0660C212068FFF760F8206704212068EC
:10376000FFF75BF8000DE06405A92046FFF7E8FECF
:1037700000283ED1226D120400232068FFF7B2F921
:10378000054698BB234653F8106B93E807008DE875
:103790000700043494E80E003046FFF701F825E0F6
:1037A0002068FFF745FA054600BB00212068FFF7B7
:1037B00034F8606704212068FFF72FF8A06708211C
:1037C0002068FFF72AF8E0670C212068FFF725F84A
:1037D000C4F880009EE70DF112012068FFF7E2FABD
:1037E0000546002899D001E04FF08065284610B0CA
:1037F00070BD4FF08055F9E710B58AB0044600233C
:1038000004930593069307930893762309930AABD1
:1038100013E907008DE8070004AB0ECB2068FEF724
:10382000BFFF2268536823F4807353602068FEF75B
:10383000D9FF2268536843F4807353600220FEF777
:103840007FFF2046FFF710FB40B10246012084F8BD
:103850003400A36B1343A3630AB010BD2046FFF7E7
:103860004BFF024630B1012084F83400A36B1343B0
:10387000A363F1E74FF400712068FFF7A1F808B9DE
:103880000020E9E7236804499963A36B0343A3631A
:10389000012084F83400DFE7FF054000A8B110B52F
:1038A000044690F8343063B1032384F83430204662
:1038B000FFF7A2FF58B9A0632063012384F83430D6
:1038C00010BD0377FDF7FCF8EEE7012070470120FB
:1038D000F6E7436C0B60836C4B60C36C8B60036DCD
:1038E000CB60436D0B61836D4B61C36D8B61036E68
:1038F000CB6100207047000030B58BB004460D4608
:10390000032380F83430436C032B1CD0B1F5805F67
:1039100008D0B1F5006F0AD079B1836B43F0006332
:10392000836314E0836B43F0805383630FE0FFF7FE
:103930007BFBA36B0343A36309E0FFF79CFBA36B33
:103940000343A36303E0836B43F080538363A36B60
:10395000C3B12368174A9A63012584F834504FF4A1
:1039600000712068FFF72CF830B123681149996382
:10397000A36B0343A3630125012384F83430284655
:103980000BB030BD63680493A3680593E3680693A6
:10399000079563690893A36909930AAB13E90700C4
:1039A0008DE8070004AB0ECB2068FEF7F9FE00257A
:1039B000D5E700BFFF05400010B582B004460023E4
:1039C000019301A9FFF77EFB10B1A36B0343A3632F
:1039D0000198C0F3432002B010BD00002DE9F0476C
:1039E00082B00546884617461E46FEF7A3FE0A9B90
:1039F0001B1A03EB0609FEF79DFE8246284B1B6847
:103A0000C3F3CB3309FB03F301932B689C6838EABB
:103A100004040CBF01230023BB423DD0B6F1FF3F9D
:103A2000F3D0FEF787FEA0EB0A00484503D2019BC6
:103A300073BB9946E9E72A68536823F0E0035360B3
:103A40006B68B3F5827F0BD0AB6AB3F5005F14D01F
:103A5000012385F85D30002385F85C3003201CE0ED
:103A6000AB68B3F5806F18BFB3F5004FECD12A688F
:103A7000136823F040031360E6E72A68136823F411
:103A8000005313602A68136843F400531360DFE7A0
:103A9000019B013B0193B8E7002002B0BDE8F0872D
:103AA000080000202DE9F04782B006460D46144676
:103AB0001F4600238DF80330FEF73CFE0A9B1B1ABD
:103AC00003EB0709FEF736FE8246D6F80080304B3E
:103AD0001B6803EB8303C3EBC3031B0D09FB03F359
:103AE000019302E0B7F1FF3F12D133689B6803EA0C
:103AF000050CA44547D0B5F5C06F08BF002CF1D127
:103B000098F80C30DBB28DF803309DF80330E9E70C
:103B1000FEF710FEA0EB0A00484503D2019B73BBE1
:103B20009946E2E73268536823F0E0035360736814
:103B3000B3F5827F0BD0B36AB3F5005F14D00123D5
:103B400086F85D30002386F85C3003201CE0B36803
:103B5000B3F5806F18BFB3F5004FECD1326813682E
:103B600023F040031360E6E73268136823F4005340
:103B700013603268136843F400531360DFE7019B5E
:103B8000013B0193B1E7002002B0BDE8F08700BF20
:103B90000800002070B584B004460D461646009219
:103BA0000B4600224FF4C051FFF77CFF18BB1F4BA0
:103BB0001B681F4AA2FB03235B0D4FF47A7202FBC2
:103BC00003F303936368B3F5827F1AD0039B3BB181
:103BD000039B013B039323689B6813F0800FF5D18F
:103BE00000962B4600224FF4C0612046FFF75AFF93
:103BF000B0B904B070BD236E43F0200323660320E8
:103C0000F7E700962B46002280212046FFF7E6FECC
:103C10000028E5D0236E43F0200323660320E8E765
:103C2000236E43F0200323660320E2E70800002010
:103C3000819F5E1600286FD010B50446436A33B9E1
:103C40004368B3F5827F05D00023C36102E00023FF
:103C5000036143610023A36294F85D30002B52D0CE
:103C6000022384F85D302268136823F04003136058
:103C7000E368B3F5E06F4CD90022B3F5706F18BF5D
:103C8000B3F5E06F01D00023A362636803F482738D
:103C9000A16801F404410B43216901F002010B43C7
:103CA000616901F001010B43A16901F400710B434B
:103CB000E16901F038010B43216A01F080010B43F7
:103CC000A16A01F4005120680B430360638B03F089
:103CD0000403616A01F010010B43616B01F00801FC
:103CE0000B43E16801F470610B43216813434B609F
:103CF0002268D36923F40063D36100202066012386
:103D000084F85D3010BD84F85C302046FCF73EFF3F
:103D1000A6E74FF48052B0E7012070472DE9F04349
:103D200083B00446894690461D46FEF703FD94F88D
:103D30005D30012B40F0EF800646DFB2B8F1000F96
:103D400018BFB9F1000F00F0E78094F85C30012B48
:103D500000F0E680012384F85C30032384F85D30B2
:103D600000232366C4F83890A4F83C80A4F83E8071
:103D70002364A4F84430A4F846302365E364A368C0
:103D8000B3F5004F1ED023681A6812F0400F03D11C
:103D90001A6842F040021A60E368B3F5E06F47D951
:103DA000636813B1B8F1010F27D1A26B23681288A1
:103DB000DA60A36B0233A363E38F9BB2013B9BB238
:103DC000E3871AE02268136823F040031360226837
:103DD000136843F480431360D5E7A26B1288DA605E
:103DE000A36B0233A363B4F83EC01FFA8CFC0CF142
:103DF000FF3C1FFA8CFCA4F83EC0E38F9BB2002B63
:103E00006ED023689A6812F0020FE6D1FEF792FC9A
:103E1000801BA84202D3B5F1FF3F01D1002DECD1A8
:103E2000012384F85D30002384F85C30032773E0BD
:103E3000636813B1B8F1010F32D1E38F9BB2012B4C
:103E40000CD9A26B23681288DA60A36B0233A363D8
:103E5000E38F9BB2023B9BB2E38721E0A26B236816
:103E600012781A73A36B0133A363E38F9BB2013BF8
:103E70009BB2E38714E0A36B1B781373A36B01332E
:103E8000A363E38F9BB2013B9BB2E38708E0FEF79D
:103E900051FC801BA84202D3B5F1FF3F18D1BDB140
:103EA000E38F9BB2E3B12268936813F0020FEED068
:103EB000E38F9BB2012BDED9A36B1B88D360A36B6E
:103EC0000233A363E38F9BB2023B9BB2E387E7E736
:103ED000012384F85D30002384F85C3003271BE065
:103EE000324629462046FFF755FE08B120232366B7
:103EF000A36833B901932368DA6801929B68019340
:103F0000019B012384F85D30002384F85C30236E2C
:103F100013B9002700E00227384603B0BDE8F0835C
:103F20000227F9E72DE9F8430446884691461F46E3
:103F3000089DFEF7FFFB064694F85D306268012B92
:103F40000BD0D9B2B2F5827F40F05A81A368002B22
:103F500040F05981042940F05881B9F1000F18BF91
:103F6000B8F1000F00F05381002F00F0528194F857
:103F70005C30012B00F04F81012384F85C3094F811
:103F80005D30042B02D0052384F85D3000232366C6
:103F9000C4F84090A4F84670A4F84470C4F838807F
:103FA000E787A787E3642365E368B3F5E06F01D88B
:103FB000012F23D92268536823F480535360236868
:103FC0001A6812F0400F03D11A6842F040021A60DA
:103FD000E368B3F5E06F5FD963680BB1012F0BD1D4
:103FE000A26B23681288DA60A36B0233A363E38FAA
:103FF0009BB2013B9BB2E387012730E02268536804
:1040000043F480535360DAE7A26B1288DA60A36B43
:104010000233A363E38F9BB2013B9BB2E38700278C
:1040200023689A6812F0010F11D0B4F8462092B2BA
:104030006AB1DA68236C1A80236C02332364B4F803
:1040400046309BB2013B9BB2A4F846300127FEF7F5
:1040500071FB831BAB4202D3B5F1FF3F14D1E38F59
:104060009BB22BB9B4F846309BB2002B00F0B18064
:1040700023689A6812F0020FD2D0E28F92B2002A1F
:10408000CED0002FCCD0BFE7012384F85D300023D1
:1040900084F85C300320B4E063680BB1012F0FD1CA
:1040A000E38F9BB2012B0DD9A26B23681288DA60D3
:1040B000A36B0233A363E38F9BB2023B9BB2E38704
:1040C000012749E0A26B236812781A73A36B0133AE
:1040D000A363E38F9BB2013B9BB2E387F0E7E28FE0
:1040E00092B2012A0CD9A26B1288DA60A36B023358
:1040F000A363E38F9BB2023B9BB2E38700273DE0C3
:10410000A26B12781A73A36B0133A363E38F9BB284
:10411000013B9BB2E387002730E02268536843F4F9
:104120008053536001270DE0226C1B7B1370236CBE
:1041300001332364B4F846309BB2013B9BB2A4F830
:1041400046300127FEF7F6FA801BA84202D3B5F1EC
:10415000FF3F36D1002D34D0E38F9BB223B9B4F8A2
:1041600046309BB2002B34D023689A6812F0020FBD
:1041700004D0E28F92B20AB1002FB0D123689A68BE
:1041800012F0010FDED0B4F8462092B2002AD9D046
:10419000B4F8462092B2012AC6D9DA68236C1A8094
:1041A000236C02332364B4F846309BB2023B9BB2CB
:1041B000A4F84630B4F846309BB2012BADD90127A4
:1041C000C0E7012384F85D30002384F85C300320CD
:1041D00017E0324629462046FFF7DCFC48B90123A8
:1041E00084F85D30002384F85C30236E4BB10120ED
:1041F00007E020232366002384F85C30012000E0E0
:104200000220BDE8F8830220FBE70220F9E7012045
:10421000F7E70120F5E70220F3E7000070B4046A35
:10422000036A23F00103036242688569124B2B4045
:104230000D681D4324F002048B6823430F4C104E7D
:10424000B04218BFA0420CBF0124002405D123F0C6
:104250000803CE681E4326F004032CB122F44072FA
:104260004C6914438A692243426085614A6842630B
:10427000036270BC704700BF8CFFFEFF000001406E
:104280000004014070B4036A026A22F48072026280
:104290004268C569144C2C400E68264323F4007311
:1042A0008C6843EA0423114C114DA84218BFA04268
:1042B0000CBF0124002406D123F40063CD6843EA37
:1042C000052323F480633CB122F440524C6942EA56
:1042D00004128C6942EA04124260C6614A68C263F1
:1042E000036270BC704700BF8CFFFEFF00000140FE
:1042F0000004014070B4036A026A22F48052026230
:104300004468C5690D4A2A400D6842EA052223F433
:1043100000538D6843EA0533094E0A4DA84218BF81
:10432000B04204D124F480444D6944EA85144460C9
:10433000C2614A680264036270BC7047FF8CFFFE72
:10434000000001400004014070B4036A026A22F4D4
:10435000803202624468426D0D4D15400A682A435E
:1043600023F400338D6843EA05430A4E0A4DA84200
:1043700018BFB04204D124F480344D6944EA0524C6
:10438000446042654A688265036270BC704700BF42
:104390008FFFFEFF000001400004014070B4036A7B
:1043A000026A22F4801202624468456D0D4A2A4076
:1043B0000D6842EA052223F400138D6843EA055391
:1043C000094E0A4DA84218BFB04204D124F48024FB
:1043D0004D6944EA8524446042654A68C2650362C7
:1043E00070BC7047FF8FFFFE0000014000040140D9
:1043F00010B4036A046A24F001040462846924F09E
:10440000F00C4CEA021223F00A030B4382610362B0
:104410005DF8044B704710B4036A046A24F010047A
:104420000462846924F4704C4CEA023223F0A00345
:1044300043EA0113826103625DF8044B70478368AD
:1044400023F070030B4343F007038360704770470A
:1044500070B403683C4A904214BF00220122B0F1BC
:10446000804F14BF144642F00104ACB9374DA84246
:1044700014BF00250125364EB0420DD065B905F1B7
:10448000804505F58235A84214BF0025012506F5B3
:104490000066B04200D01DB123F070034D682B437D
:1044A000002C33D1294CA04214BF00240124284DF4
:1044B000A8422BD054BB04F1804404F58234A042BE
:1044C00014BF0024012405F50065A8421ED0ECB9F4
:1044D000204CA04214BF0024012405F59A35A842BF
:1044E00014D09CB91C4CA04214BF0024012405F533
:1044F0000065A8420AD04CB9184CA04214BF002451
:104500000124A5F59635A84200D01CB123F44073D0
:10451000CC68234323F080034C6923438C68C46236
:104520000C6884620E4CA04208BF42F001020AB13E
:104530000A690263026842F00402026001224261D9
:10454000036070BC704700BF0000014000080040DD
:1045500000040040004401400018004000200040DA
:104560000004014060B310B5044690F83D3013B329
:10457000022384F83D30214651F8040BFFF768FF11
:10458000012384F8483084F83E3084F83F3084F8C2
:10459000403084F8413084F8423084F8433084F865
:1045A000443084F8453084F8463084F8473084F845
:1045B0003D30002010BD80F83C30FCF71BFBD7E7F6
:1045C0000120704760B310B5044690F83D3013B336
:1045D000022384F83D30214651F8040BFFF738FFE1
:1045E000012384F8483084F83E3084F83F3084F862
:1045F000403084F8413084F8423084F8433084F805
:10460000443084F8453084F8463084F8473084F8E4
:104610003D30002010BD80F83C30FFF718FFD7E791
:104620000120704770B4036A026A22F0100202622D
:1046300042688569144C2C400D6844EA052523F036
:1046400020038C6843EA0413104C114EB04218BF8B
:10465000A0420CBF0124002406D123F08003CE68C1
:1046600043EA061323F040033CB122F440624C6954
:1046700042EA84028C6942EA8402426085614A68A7
:104680008263036270BC7047FF8CFFFE0000014034
:104690000004014038B590F83C30012B00F09580C3
:1046A00004460D46012380F83C30142A00F288802D
:1046B000DFE802F00B8686861F868686348686862D
:1046C000488686865D86868671000068FFF7A6FDAF
:1046D0002268936943F0080393612268936923F089
:1046E000040393612268936929690B439361002055
:1046F00067E00068FFF796FF2268936943F4006360
:1047000093612268936923F48063936122689369BB
:10471000296943EA01239361002052E00068FFF712
:10472000B1FD2268D36943F00803D3612268D369DD
:1047300023F00403D3612268D36929690B43D36151
:1047400000203EE00068FFF7D5FD2268D36943F4FE
:104750000063D3612268D36923F48063D361226844
:10476000D369296943EA0123D361002029E0006865
:10477000FFF7EAFD2268536D43F008035365226892
:10478000536D23F0040353652268536D29690B436D
:104790005365002015E00068FFF700FE2268536DA6
:1047A00043F4006353652268536D23F480635365BB
:1047B0002268536D296943EA01235365002000E014
:1047C0000120002384F83C3038BD0220FCE710B4FF
:1047D000846824F47F4C42EA03220A4342EA0C0232
:1047E00082605DF8044B704790F83C30012B76D026
:1047F00010B50446012380F83C30022380F83D3098
:1048000002689068374B034093600B68602B4CD074
:1048100023D8402B54D011D8202B03D00AD80BB169
:10482000102B05D119462068FFF709FE002028E06B
:10483000012026E0302BF5D0012022E0502B0AD1B8
:10484000CA6849682068FFF7D3FD50212068FFF748
:10485000F6FD002015E0012013E0B3F5805F3AD0AB
:10486000B3F5005F14D0702B37D1CB684A688968E4
:104870002068FFF7ACFF2268936843F077039360EA
:104880000020012384F83D30002384F83C3010BD23
:10489000CB684A6889682068FFF799FF22689368A7
:1048A00043F4804393600020EBE7CA6849682068BE
:1048B000FFF7B1FD60212068FFF7C1FD0020E0E7B0
:1048C000CA6849682068FFF793FD40212068FFF718
:1048D000B6FD0020D5E70020D3E70120D1E7022074
:1048E000704700BF8800FEFF90F83C20012A45D0A9
:1048F00070B40346012280F83C20022280F83D205B
:104900000268506894681E4E1E4DAA4218BFB242FB
:1049100003D120F470004D68284320F070000D682A
:10492000284350601A681648B2F1804F18BF82427F
:1049300017D0A0F57C40824213D000F580608242FF
:104940000FD000F5806082420BD000F578408242A3
:1049500007D000F57050824203D0A0F59430824217
:1049600004D124F08004896821439160012283F8F6
:104970003D20002083F83C0070BC70470220704747
:10498000000001400004014082B000230193019B1C
:1049900001330193019BB3F1706F1CD80369002BA5
:1049A000F5DA0A23019302E0019B013B0193019B8D
:1049B000002BF9D1036943F001030361019B01332B
:1049C0000193019BB3F1706F08D8036913F0010FD5
:1049D000F4D1002000E0032002B070470320FBE781
:1049E00084B010B5044603A880E80E009DF811308D
:1049F000012B19D0032B40D1A36B23F48033A36385
:104A0000E268284B1340E360E36823F44013E3605B
:104A1000E36823F01003E3609DF81830012B27D0E2
:104A20002046FFF7B1FF16E0A36B23F48033A363A6
:104A3000E2681C4B1340E360E36843F01003E3605B
:104A4000E36823F44013E3609DF81830012B0AD08B
:104A50002046FFF799FF9DF80E30012B19D0BDE8D5
:104A6000104004B07047E36843F48013E360EFE75D
:104A7000E36843F48013E360D2E7E36843F0400364
:104A8000E3602046FFF780FFA36B43F48033A3630A
:104A9000E1E7A36843F00603A360A36843F02003A3
:104AA000A360DCE7BFFFBDFF022A0AD00922C3686A
:104AB00023F47053C360C36843EA8223C3600020B9
:104AC0007047204B0B44204A934229D91F4B0B447B
:104AD0001F4A934226D91F4B0B441F4A934223D9A6
:104AE0001E4B0B441E4A934220D31E4B0B441E4ABE
:104AF00093421DD91D4B0B441D4A93421AD31D4BA3
:104B00000B441D4A934217D31C4B0B441C4A93423F
:104B100014D31C4B0B441C4A934211D20722C6E704
:104B20000F22C4E70E22C2E70D22C0E70C22BEE727
:104B30000B22BCE70A22BAE70922B8E70822B6E747
:104B40000622B4E7405327FFFF340C00401E1BFF32
:104B50003F420F0000DC0BFF7F4F1200808CF9FEFC
:104B600020D6130060B6E5FE5FE3160000D3CEFE4C
:104B700040771B00C05BB3FEC091210000CA91FECC
:104B800020753800E05459FEE09C4100836843F0F2
:104B90000103836000207047836823F00103836072
:104BA0000020704782B000230193019B01330193E1
:104BB000019BB3F1706F15D80369002BF5DA002360
:104BC0000193890141F020010161019B01330193AF
:104BD000019BB3F1706F08D8036913F0200FF4D173
:104BE000002000E0032002B070470320FBE782B002
:104BF00000230193019B01330193019BB3F1706F7B
:104C000013D80369002BF5DA002301931023036105
:104C1000019B01330193019BB3F1706F08D80369C5
:104C200013F0100FF4D1002000E0032002B0704711
:104C30000320FBE7D0F800381943C0F80018002023
:104C40007047000084B0F8B5044607A880E80E005D
:104C5000002306E003F1400204EB820200215160D0
:104C600001330E2BF6D99DF8266016BBD4F8043814
:104C700043F00203C4F80438A36B23F40013A363C6
:104C8000236843F040032360236843F080032360DC
:104C90000023C4F8003E9DF82130012B0ED0032BD9
:104CA0001ED19DF81F30B3B900212046FFF7C2FF87
:104CB0001AE0A36B43F40013A363E9E79DF81F30E8
:104CC00023B900212046FFF7B5FF0DE00121204662
:104CD000FFF7B0FF08E001212046FFF7ABFF03E03C
:104CE00003212046FFF7A6FF10212046FFF75AFFB9
:104CF000054600B101252046FFF779FF00B10125E7
:104D000004F5006C0023CCF81030CCF81430CCF84B
:104D10001C300DE04FF09040C2F8000902E0002086
:104D2000C2F8000900220A614FF67F328A6001331F
:104D30009DF81C1099420ED904EB431202F5106144
:104D4000D2F800090028EADA002BE3D14FF0006026
:104D5000C2F80009E6E700230AE0BBB14FF0904734
:104D6000C2F8007B002202614FF67F32826001337D
:104D7000994210D904EB431202F53060D2F8007B5F
:104D8000002FEADB0027C2F8007BEBE74FF000675B
:104D9000C2F8007BE6E7DCF8103023F48073CCF82F
:104DA00010300023A3616FF0804363619DF81E30D3
:104DB0001BB9A36943F01003A361A2690A4B134313
:104DC000A3619DF822301BB1A36943F00803A361DE
:104DD000012E04D02846BDE8F84004B07047A2690F
:104DE000024B1343A361F5E700383C800400004008
:104DF000D0F8083803F00603022B04D0062B04D0A9
:104E00002BB90020704702207047022070470F2006
:104E10007047000010B591F800C04B78012B21D0ED
:104E200000F5006ED0F81C380CF00F040122A240EF
:104E300043EA0243C0F81C3800EB4C10D0F8003BAA
:104E400013F4004F0CD1D0F8002B8B68C3F30A0386
:104E5000097943EA81431A43134B1343C0F8003BDB
:104E6000002010BDD0F81C280CF00F0E03FA0EF332
:104E70009BB21343C0F81C3800EB4C10D0F800393B
:104E800013F4004FECD1D0F800298B68C3F30A0368
:104E9000097943EA814343EA8C531A43024B134393
:104EA000C0F80039DCE700BF0080001030B40B7898
:104EB0004A78012A26D000EB4313D3F8002B002AAE
:104EC00052DBD0F83C480A7802F00F024FF0010C98
:104ED0000CFA02F224EA0242C0F83C28D0F81C285E
:104EE000097801F00F010CFA01FC22EA0C42C0F82B
:104EF0001C28D3F8001B234A0A40C3F8002B0020CB
:104F000030BC704700EB4313D3F80029002A1EDBA6
:104F1000D0F83C580A7802F00F02012404FA02F299
:104F200092B225EA0202C0F83C28D0F81C28097881
:104F300001F00F018C40A4B222EA0402C0F81C2840
:104F4000D3F80019104A0A40C3F80029D7E7D3F86C
:104F5000002942F00062C3F80029D3F8002942F08A
:104F60008042C3F80029D3E7D3F8002B42F0006257
:104F7000C3F8002BD3F8002B42F08042C3F8002B7B
:104F80009FE700BF0078F3EF007833EC10B483B0F4
:104F9000024600230193487801280BD00B7802EBDE
:104FA0004313D3F8000B00282DDB002003B05DF87D
:104FB000044B70470B7802EB4313D3F80049002CE5
:104FC00001DB0020F2E7D3F8004944F00064C3F8A5
:104FD00000490B7802EB4313D3F8004944F08044B6
:104FE000C3F80049019B01330193019C42F2107305
:104FF0009C42DBD80B7802EB4313D3F80039002B2B
:10500000F0DB0020D2E7D3F8000B40F00060C3F8DB
:10501000000B0B7802EB4313D3F8000B40F08040F9
:10502000C3F8000B019B01330193019842F2107306
:10503000984208D80B7802EB4313D3F8003B002BBF
:10504000F0DB0020B2E70120B0E710B59DF8084082
:1050500084B903334FEA930E4FF0000C08E000EBE5
:10506000023303F5805351F8044B1C600CF1010C22
:10507000F445F4D3002010BDF0B583B00C784B7824
:10508000012B2DD000EB441C0CF530631D696FF330
:1050900012051D611D696FF3DC451D61002C40F098
:1050A000CE800C690CB18C680C618C680C621D6937
:1050B000C4F312042C431C611C6944F400241C61D9
:1050C000012A00F0DF800B79012B00F0E180DCF891
:1050D000003B43F00443CCF8003B002003B0F0BD9C
:1050E0000B6973BB00EB4413D3F810596FF3DC4525
:1050F000C3F81059D3F8105945F40025C3F81059D6
:10510000D3F810596FF31205C3F81059012A54D07F
:1051100000EB4414D4F8003943F00443C4F80039D8
:105120000B79012B72D00B69002BD6D0D0F8343814
:10513000097801F00F0101228A401343C0F8343886
:10514000CBE700EB441303F510631D696FF3120501
:105150001D611D696FF3DC451D6184B90E698D68A1
:10516000AE4200D90D611D6945F400251D611D6920
:105170000E69C6F3120C45EA0C051D61C6E70D6900
:105180008E683544013DB5FBF6F51E691FFA85FCB6
:10519000494F07EAC54535431D610D79012DE6D11B
:1051A0001D6925F0C0451D611D694FEA4C7C0CF05E
:1051B000C04C45EA0C051D61D9E7CB691BB100EB7A
:1051C0004412C2F814390B79012B08D000EB4414B7
:1051D000D4F8003943F00443C4F800397DE7D0F82F
:1051E000083813F4807F08D100EB4412D2F800395C
:1051F00043F00053C2F80039E8E700EB4412D2F85C
:10520000003943F08053C2F80039DFE7D0F808389E
:1052100013F4807F0CD1D4F8003943F00053C4F864
:10522000003900920B8A0A78C968FFF70EFF54E72D
:10523000D4F8003943F08053C4F80039F1E70C6921
:1052400054B91C698D68C5F312052C431C611C6997
:1052500044F400241C6133E78D682C44013CB4FB0A
:10526000F5F4A4B204FB05F50D621D69124E06EAC1
:10527000C4442C431C611C690D6AC5F312052C4300
:105280001C611DE7CA68002A3FF41DAF5A611AE786
:10529000D0F8083813F4807F06D1DCF8003B43F0E7
:1052A0000053CCF8003B12E7DCF8003B43F080539E
:1052B000CCF8003B0BE700BF0000F81F10B5844698
:1052C00008464FEA920E02F00302002305E00CF5B7
:1052D0008051096840F8041B01337345F7D37AB154
:1052E0000CF5805CDCF800400021CBB2DB0024FA36
:1052F00003F300F8013B0131013A92B2002AF4D1E4
:1053000010BD0B784A78012A14D000EB4310D0F876
:10531000002B002A06DB2BB1D0F8003B23F08043A2
:10532000C0F8003BD0F8003B43F40013C0F8003B4A
:105330000020704700EB4310D0F80029002A06DB5C
:105340002BB1D0F8003923F08043C0F80039D0F8F1
:10535000003943F40013C0F80039E9E70B784A78C4
:10536000012A0ED000EB4310D0F8003B23F40013C9
:10537000C0F8003B0B79023BDBB2012B15D90020B2
:10538000704700EB4310D0F8003923F40013C0F845
:1053900000390B79023BDBB2012BF0D8D0F8003991
:1053A00043F08053C0F80039E9E7D0F8003B43F000
:1053B0008053C0F8003BE2E7D0F8003823F4FE63E6
:1053C000C0F80038D0F80038090101F4FE610B4341
:1053D000C0F8003800207047D0F8003E23F00303E7
:1053E000C0F8003ED0F8043823F00203C0F80438B7
:1053F00000207047D0F8003E23F00303C0F8003EC1
:10540000D0F8043843F00203C0F804380020704795
:105410004269806910407047D0F8183800F5006084
:10542000C0691840000C7047D0F8183800F50060CB
:10543000C069184080B2704700EB4111D1F8082BC9
:1054400000F50060406910407047D0F81028D0F88F
:10545000343801F00F0C23FA0CF3DB01DBB21343F9
:1054600000EB411000F510608068184070474069FB
:1054700000F00100704738B50546C36823F0C0430B
:10548000C360012913D019BBC36843F08043C360D4
:1054900000240A20FDF754F90A342846FFF7E7FFF5
:1054A00008B1C72CF5D9C82C14D0002038BDC3686A
:1054B00043F00053C36000240A20FDF741F90A3489
:1054C0002846FFF7D4FF0128EDD0C72CF4D9EAE72E
:1054D0000120EBE70120E9E7D0F800396FF30A0378
:1054E000C0F80039D0F8043843F48073C0F80438A9
:1054F0000020704710B4046C154B9C4203D9D0F8BF
:10550000003B002B16DB0024C0F8104BD0F8104BEA
:1055100044F40024C0F8104BD0F8104B44F01804A9
:10552000C0F8104BD0F8104B44F0C044C0F8104BFA
:10553000012903D000205DF8044B7047C0F8142BFC
:10554000D0F8003B43F08023C0F8003BF2E700BFF7
:105550000A30544F034AD2F8883043F47003C2F83B
:105560008830704700ED00E010B503460C4A0D4945
:105570000D48006840B10C4800680344521A934239
:1055800006D8094A136010BD0748084C0460F2E7CA
:1055900002F020FE0C2303604FF0FF30F3E700BF62
:1055A00000000420000400000C030020301E002036
:1055B00070B50C461646002506E0AFF30080214684
:1055C00001F8010B01350C46B542F6DB304670BDE3
:1055D0004FF0FF3070474FF400534B60002070478E
:1055E00001207047002070472DE9F04383B0D0F8C8
:1055F000008001EBC10300EB83039A6A5B6A9A4265
:1056000054D807460C469B1A01EBC10200EB8202FC
:10561000D2699A4200D31A4602F103094FEA990966
:1056200015E006F103094FEA9909BB7904EBC405BB
:1056300007EB8505296A0093B3B2E2B24046FFF753
:1056400004FD2B6A33442B62AB6A3344AB6208EB34
:10565000441303F510639B699BB24B4512D304EBD3
:10566000C40307EB83039A6A5B6A9A420AD24BB17E
:105670009B1A04EBC40207EB8202D6699E42D0D388
:105680001E46CEE704EBC40307EB83077A6ABB6AC6
:105690009A420FD804F00F040122A240D8F83438FF
:1056A00023EA0203C8F83438002000E0012003B0E8
:1056B000BDE8F0830020FAE730B583B0002800F0A1
:1056C00082800446056890F89534C3B1032384F8BA
:1056D0009534B5F1A04F17D02068FFF75DFA237C11
:1056E0008DF80030231D0ECB2068FFF779F970B1DB
:1056F000022384F895340125284603B030BD80F894
:10570000943400F0E7FEE1E70023A371E4E7002111
:105710002068FFF7B0FE0246B8B9034620799842E8
:1057200018D903EBC30104EB8101012048750B7507
:10573000CB8500200876C861086203EBC30104EB47
:10574000810148620133DBB2E8E7022384F8953433
:105750000125D1E7904217D902EBC20304EB830382
:10576000002183F8551283F8542283F85812C3F8A5
:105770005C12C3F8601202EBC20304EB8303C3F8AC
:1057800064120132D2B2E5E7237C8DF80030231D8C
:105790000ECB2068FFF756FA054658B9002363740C
:1057A000012384F89534237B012B08D02068FFF770
:1057B00021FEA1E7022384F8953401259CE72046C9
:1057C00000F068FDF2E7012596E790F89434012B8C
:1057D0000ED010B50446012380F894340068FFF71A
:1057E000D5F92068FFF7F8FD002084F8940410BD77
:1057F0000220704770B504460D460068066C00EB49
:10580000411303F530639A68A179012911D0384911
:105810008E4256D03DB905EBC50304EB8303D3F8A4
:105820006432002B5ED0E9B2204600F0B1FE0020C9
:1058300070BD12F0080F09D02E498E42F7D912F42C
:10584000004FF4D04FF400429A60F0E712F0200FBE
:1058500002D020229A60EAE712F0280FE7D125490A
:105860008E4206D912F4004F03D04FF400429A60E2
:10587000DDE705EBC50204EB8202D2F874121B6966
:10588000C3F31203CB1AC2F868327DB905EBC50227
:1058900004EB8202D2F864226AB105EBC50204EB84
:1058A0008202D2F860121944C2F86012E9B22046AE
:1058B00000F06EFEBBE704F29C420121FFF71AFEE6
:1058C000F4E712F4004F03D04FF400429A60AEE7C1
:1058D00012F0200F01D020229A60E9B2204600F099
:1058E00057FEA4E704F29C420021FFF703FE9AE76B
:1058F0000A31544F0A30544F38B5044603681D6CC2
:1059000003EB4113D3F8081B0E4A954207D903F560
:10591000306311F4004F02D04FF400429A602046E9
:1059200000F02EFE074B9D4202D9A379012B01D036
:10593000002038BD04F29C4201212068FFF7DAFD07
:10594000F6E700BF0A30544F90F89434012B0CD086
:1059500010B50446012380F8943441740068FFF7C1
:105960002BFD002084F8940410BD0220704738B548
:1059700005468C4611F0800F2BD101F00F0E0EEB77
:10598000CE04A40004F514740444211D0EEBCE0EC5
:1059900000EB8E0E00208EF855020CF00F0C81F8F3
:1059A00000C0C2F30A028A600B714A780AB1A1F8FA
:1059B0001AC0022B1CD095F89434012B1BD0012364
:1059C00085F894342868FFF725FA002085F89404B8
:1059D00038BD01F00F0000EBC001890010312944EF
:1059E000043100EBC00005EB800001244475D4E7CE
:1059F00000234B71DFE70220EAE710B504460A46B0
:105A000011F0800F20D101F00F0000EBC0039B00CC
:105A100003F514732344191D00EBC00004EB800050
:105A2000002380F8553202F00F020A7094F8943483
:105A3000012B18D0012384F894342068FFF736FA3C
:105A4000002084F8940410BD01F00F0000EBC003A7
:105A50009B0010332344191D00EBC00004EB8000B1
:105A600001234375DFE70220EDE710B5144601F08E
:105A70000F0C0CEBCC01890001F5147101440431C9
:105A80000CEBCC0E00EB8E0ECEF86022CEF864321A
:105A90000023CEF868328EF855328EF854C28279DF
:105AA000012A04D00068FFF7E7FA002010BDCEF805
:105AB0007042F7E701F00F0101EBC10100EB81003B
:105AC000D0F86802704710B5144601F00F0C0CEBCB
:105AD000CC0189001031014404310CEBCC0E00EBF9
